:100000000C9434000C9446000C9446000C9446006A
:100010000C9446000C9446000C9446000C94460048
:100020000C9446000C9446000C9446000C948400FA
:100030000C9446000C9446000C9446000C94460028
:100040000C9446000C9446000C9446000C94460018
:100050000C9446000C9446000C9458010C944600F5
:100060000C9446000C94460011241FBECFEFD8E03C
:10007000DEBFCDBF21E0A0E0B1E001C01D92A830FD
:10008000B207E1F70E9488010C949B010C940000D8
:10009000E0EBF0E0908193689083E1EBF0E09081F9
:1000A000976090838093B3000895E0EBF0E0808147
:1000B0008C778083E1EBF0E08081887F80830895F6
:1000C0008DE38093890089E080938800E1E8F0E087
:1000D00080818D608083EFE6F0E0808182608083A4
:1000E0000895239A88E00E9448002FEF8DE399E459
:1000F000215080409040E1F700C000000E94550070
:100100000E946000239808951F920F920FB60F92DD
:1001100011242F933F934F935F936F937F938F930C
:100120009F93AF93BF93EF93FF9383B78E7F83BF6C
:100130008091010190910201A0910301B09104010D
:10014000892B8A2B8B2B69F481E090E0A0E0B0E052
:100150008093010190930201A0930301B0930401E5
:100160008DC084B18F6384B923E025C085B18763D6
:1001700085B93FEF43EC89E0315040408040E1F7E2
:1001800000C0000085B1887F85B93FEF4AE683E073
:10019000315040408040E1F700C00000915031F7FD
:1001A0009FEF37E94AE3915030404040E1F700C00B
:1001B0000000215011F091E1D9CF85B1876385B955
:1001C0008FEF9DE329E4815090402040E1F700C08B
:1001D0000000E4E6F0E080818F7B808380E20E9473
:1001E00048003FEF40EC88E4315040408040E1F768
:1001F00000C000000E9455009FEF21EE34E09150B6
:1002000020403040E1F700C0000088E00E94480034
:100210004FEF80EC98E4415080409040E1F700C0FF
:1002200000000E9455002FEF37EA41E62150304090
:100230004040E1F700C000008FEF93EB24EC34E086
:100240008150904020403040D9F700C0000085B177
:10025000887C85B984B1807C84B9109201011092A8
:1002600002011092030110920401809100018F5F3E
:100270008093000161E070E00E944F01FF91EF91D7
:10028000BF91AF919F918F917F916F915F914F91AE
:100290003F912F910F900FBE0F901F901895709364
:1002A0000701609306018093050188E08FBB0895E4
:1002B0001F920F920FB60F9211248F939F938091EC
:1002C00006019091070192BD81BD8091050180BD1D
:1002D000FB98FA9AF99A9F918F910F900FBE0F9009
:1002E0001F9018950E947100EEE7F0E080818F6307
:1002F0008083EFE7F0E080818360808380B780684F
:1003000080BFE4E6F0E08081876E80837894089572
:100310000E94720183B7817F83BF85B7806685BFE6
:1003200085B7806485BF85B78F7D85BF83B78160C2
:0A03300083BF8895EFCFF894FFCF4C
:00000001FF
